:100000000C9434000C9451000C9451000C94510049
:100010000C9451000C9451000C9479240C945100D0
:100020000C9451000C9451000C9451000C94272412
:100030000C9451000C9451000C9451000C945100FC
:100040000C9451000C9451000C94F3250C94510025
:100050000C9451000C9451000C9451000C945100DC
:100060000C9451000C94510011241FBECFEFD8E026
:10007000DEBFCDBF14E0A0E0B1E0ECECFEE402C0D6
:1000800005900D92A236B107D9F724E0A2E6B4E0BC
:1000900001C01D92A439B207E1F70E9420260C94FA
:1000A00064270C940000DC01E9E7F0E0E61BF109AD
:1000B00009941D921D921D921D921D921D921D92DA
:1000C0001D921D921D921D921D921D921D921D92B8
:1000D0001D921D921D921D921D921D921D921D92A8
:1000E0001D921D921D921D921D921D921D921D9298
:1000F0001D920895CF93DF93440FEB01DC01E4ECF4
:10010000F0E0E41BF109099409900D9209900D9219
:1001100009900D9209900D9209900D9209900D92FF
:1001200009900D9209900D9209900D9209900D92EF
:1001300009900D9209900D9209900D9209900D92DF
:1001400009900D9209900D9209900D9209900D92CF
:1001500009900D9209900D9209900D9209900D92BF
:1001600009900D9209900D9209900D9209900D92AF
:1001700009900D9209900D9209900D9209900D929F
:1001800009900D9209900D92DF91CF910895262F3D
:1001900032E0639F200D11242350DC01E5E3F1E000
:1001A000E21BF109A60FB11D0E9006940C92099462
:1001B0000E9007940C920E9007940C920E90079458
:1001C0000C920E9007940C920E9007940C920E9045
:1001D00007940C920E9007940C920E9007940C9238
:1001E0000E9007940C920E9007940C920E90079428
:1001F0000C920E9007940C920E9007940C920E9015
:1002000007940C920E9007940C920E9007940C9207
:100210000E9007940C920E9007940C920E900794F7
:100220000C920E9007940C920E9007940C920E90E4
:1002300007940C920E9007940C920E9007940C92D7
:100240000E9007940C920E9007940C920E900794C7
:100250000C920E9007940C920E9007940C920E90B4
:1002600007940C920E9007940C920895CF93DF930D
:10027000220FDB01EA01AC01E2E8F1E0E21BF10947
:1002800088940994FA013EC0FA0140C0FA0142C0C4
:10029000FA0144C0FA0146C0FA0148C0FA014AC056
:1002A000FA014CC0FA014EC0FA0150C0FA0152C026
:1002B000FA0154C0FA0156C0FA0158C0FA015AC0F6
:1002C000FA015CC0FA015EC0FA0160C0FA0162C0C6
:1002D000FA0164C0FA0166C0FA0168C0FA016AC096
:1002E000FA016CC0FA016EC0FA0170C0FA0172C066
:1002F000FA0174C0FA0176C0FA0178C0FA017AC036
:10030000FA017CC08D919991891F81938D9199916A
:10031000891F81938D919991891F81938D919991D5
:10032000891F81938D919991891F81938D919991C5
:10033000891F81938D919991891F81938D919991B5
:10034000891F81938D919991891F81938D919991A5
:10035000891F81938D919991891F81938D91999195
:10036000891F81938D919991891F81938D91999185
:10037000891F81938D919991891F81938D91999175
:10038000891F81938D919991891F81938D91999165
:10039000891F81938D919991891F81938D91999155
:1003A000891F81938D919991891F81938D91999145
:1003B000891F81938D919991891F81938D91999135
:1003C000891F81938D919991891F81938D91999125
:1003D000891F81938D919991891F81938D91999115
:1003E000891F81938D919991891F81938D91999105
:1003F000891F81938D919991891F81938D919991F5
:10040000891F8193812D881FDF91CF910895CF930C
:10041000DF93220FDB01EA01AC01E3E5F2E0E21B2E
:10042000F10988940994FA013EC0FA0140C0FA012A
:1004300042C0FA0144C0FA0146C0FA0148C0FA01BC
:100440004AC0FA014CC0FA014EC0FA0150C0FA018C
:1004500052C0FA0154C0FA0156C0FA0158C0FA015C
:100460005AC0FA015CC0FA015EC0FA0160C0FA012C
:1004700062C0FA0164C0FA0166C0FA0168C0FA01FC
:100480006AC0FA016CC0FA016EC0FA0170C0FA01CC
:1004900072C0FA0174C0FA0176C0FA0178C0FA019C
:1004A0007AC0FA017CC08D919991890B81938D91CD
:1004B0009991890B81938D919991890B81938D915C
:1004C0009991890B81938D919991890B81938D914C
:1004D0009991890B81938D919991890B81938D913C
:1004E0009991890B81938D919991890B81938D912C
:1004F0009991890B81938D919991890B81938D911C
:100500009991890B81938D919991890B81938D910B
:100510009991890B81938D919991890B81938D91FB
:100520009991890B81938D919991890B81938D91EB
:100530009991890B81938D919991890B81938D91DB
:100540009991890B81938D919991890B81938D91CB
:100550009991890B81938D919991890B81938D91BB
:100560009991890B81938D919991890B81938D91AB
:100570009991890B81938D919991890B81938D919B
:100580009991890B81938D919991890B81938D918B
:100590009991890B81938D919991890B81938D917B
:1005A0009991890B8193812D881FDF91CF910895B7
:1005B000CF93DF93FC01DB01EA0190E0892F392F13
:1005C000492F51E060E0C50FD41F0D901A90019C97
:1005D000900D811D341F63956517B8F3A51BB40BEF
:1005E0009193982F832F342F5395521758F3522FEE
:1005F000C20FD41F60E00D901A90019C900D811DD8
:10060000341F63956517B8F3C50FD41F9193982FC6
:10061000832F342F5A95A51BB40B541759F7919378
:100620001124DF91CF910895AC0190E020E096175E
:100630004CF4FA01E90FF11D97FDFA958081282B02
:100640009F5FF5CF81E0211180E008959B0143E099
:10065000359527954A95E1F7820F931F67707727A5
:1006600021E030E001C0220F6A95EAF7FC018081A9
:1006700082230895615067FF0CC06F5F11F1062E51
:10068000000C770B860F971FFC013197808120E0CB
:1006900009C0FC01E60FF11D67FDFA9520812223B8
:1006A00049F3EBCF882319F086952F5FFBCFCB0161
:1006B000019733E0880F991F3A95E1F7820F911D5A
:1006C000089580E090E00895FC01415047FD12C07C
:1006D000242F042E000C330BDF01A20FB31F5C91FB
:1006E000DB01A20FB31F9C91951730F0591768F7E3
:1006F0008FEF089580E0089581E008951F93CF93D0
:10070000DF93EC01DB0110E0EDB7FEB778970FB691
:10071000F894FEBF0FBEEDBF799698962E91269560
:1007200022932E91279522932E91279522932E91F5
:10073000279522932E91279522932E9127952293E8
:100740002E91279522932E91279522932E912795CE
:1007500022932E91279522932E91279522932E91C5
:10076000279522932E91279522932E9127952293B8
:100770002E91279522932E91279522932E9127959E
:1007800022932E91279522932E91279522932E9195
:100790002795229322272795229333972D912193F2
:1007A0002D9121932D9121932D913081230F219310
:1007B0002D913081231F21932D913081231F21936F
:1007C0002D913081231F21932D913081231F21935F
:1007D0002D913081231F21932D913081231F21934F
:1007E0002D913081231F21932D913081231F21933F
:1007F0002D913081231F21932D913081231F21932F
:100800002D913081231F21932D913081231F21931E
:100810002D913081231F21932D913081231F21930E
:100820002D913081231F21932D913081231F2193FE
:100830002081211D21932081211D21932081211DB3
:1008400021932081211D21937897989721913D91A3
:10085000230F299321913D91231F299321913D91AC
:10086000231F299321913D91231F299321913D918C
:10087000231F299321913D91231F299321913D917C
:10088000231F299321913D91231F299321913D916C
:10089000231F299321913D91231F299321913D915C
:1008A000231F299321913D91231F299321913D914C
:1008B000231F299321913D91231F299321913D913C
:1008C000231F299321913D91231F299321913D912C
:1008D000231F299321913D91231F299321913D911C
:1008E000231F299321913D91231F2993111D649763
:1008F0003496229126952E93229127952E9322911C
:1009000027952E93229127952E93222727952E9374
:10091000139721912D9321912D9321912D93219125
:100920003C91230F2D932C91211D2D932C91211D52
:100930002D932C91211D2D932C91211D2D931897D2
:100940002D913881230F29932D913881231F2993CD
:100950002D913881231F29932D913881231F2993AD
:100960002D913881231F29932D913881231F29939D
:100970002D913881231F29932D913881231F29938D
:100980002881211D29932881211D29932881211D3A
:1009900029932881211D29932881211D29932881AC
:1009A000211D29932881211D29932881211D299307
:1009B0002881211D29932881211D29932881211D0A
:1009C00029932881211D2993111D649731970FB612
:1009D000F894FEBF0FBEEDBF112379F024E146EB82
:1009E00053E0BC010E940702113039F024E146EBCC
:1009F00053E0BE01CE010E94070244E166EB73E0C2
:100A0000CE010E946403181654F424E146EB53E02F
:100A1000BE01CE01DF91CF911F910C940702DF91AF
:100A2000CF911F9108951F93CF93DF93EC01DB01CA
:100A300010E0EDB7FEB7B5970FB6F894FEBF0FBE46
:100A4000EDBF3196909693E081ED2D913D914D91C2
:100A50005D91829F0192612D70E0839F600D711DF9
:100A6000929F600D711D619360E0849F700D611D08
:100A7000939F700D611D719370E0859F600D711DD6
:100A8000949F600D711D619360E0720F661F2D9140
:100A9000829F700D611D959F700D611D719370E0B7
:100AA000630F771F3D91839F600D711D929F600DB5
:100AB000711D619360E0740F661F4D91849F700DEE
:100AC000611D939F700D611D719370E0650F771F1D
:100AD0005D91859F600D711D949F600D711D6193E7
:100AE00060E0720F661F2D91829F700D611D959FB2
:100AF000700D611D719370E0630F771F3D91839FAF
:100B0000600D711D929F600D711D619360E0740F07
:100B1000661F4D91849F700D611D939F700D611D27
:100B2000719370E0650F771F5D91859F600D711D5A
:100B3000949F600D711D619360E0720F661F2D918F
:100B4000829F700D611D959F700D611D719370E006
:100B5000630F771F3D91839F600D711D929F600D04
:100B6000711D619360E0740F661F4D91849F700D3D
:100B7000611D939F700D611D719370E0650F771F6C
:100B80005D91859F600D711D949F600D711D619336
:100B900060E0720F661F2D91829F700D611D959F01
:100BA000700D611D719370E0630F771F3D91839FFE
:100BB000600D711D929F600D711D619360E0740F57
:100BC000661F4D91849F700D611D939F700D611D77
:100BD000719370E0650F771F5D91859F600D711DAA
:100BE000949F600D711D619360E0720F661F2D91DF
:100BF000829F700D611D959F700D611D719370E056
:100C0000630F771F3D91839F600D711D929F600D53
:100C1000711D619360E0740F661F4D91849F700D8C
:100C2000611D939F700D611D719370E0650F771FBB
:100C30005D91859F600D711D949F600D711D619385
:100C400060E0720F661F2D91829F700D611D959F50
:100C5000700D611D719370E0630F771F3D91839F4D
:100C6000600D711D929F600D711D619360E0740FA6
:100C7000661F4D91849F700D611D939F700D611DC6
:100C8000719370E0650F771F5D91859F600D711DF9
:100C9000949F600D711D619360E0720F661F2D912E
:100CA000829F700D611D959F700D611D719370E0A5
:100CB000630F771F3D91839F600D711D929F600DA3
:100CC000711D619360E0740F661F4D91849F700DDC
:100CD000611D939F700D611D719370E0650F771F0B
:100CE0005D91859F600D711D949F600D711D6193D5
:100CF00060E0720F661F959F700D611D719370E02B
:100D0000630F771F619360E0740F661F719370E04B
:100D1000650F771F619371931124B597A054B109A2
:100D200021913D91230F299321913D91231F2993D7
:100D300021913D91231F299321913D91231F2993B7
:100D400021913D91231F299321913D91231F2993A7
:100D500021913D91231F299321913D91231F299397
:100D600021913D91231F299321913D91231F299387
:100D700021913D91231F299321913D91231F299377
:100D800021913D91231F299321913D91231F299367
:100D900021913D91231F299321913D91231F299357
:100DA00021913D91231F299321913D91231F299347
:100DB00021913D91231F299321913D91231F299337
:100DC00021913D91231F299321913D91231F299327
:100DD00021913D91231F299321913D91231F299317
:100DE00021913D91231F299321913D91231F299307
:100DF00021913D91231F299321913D91231F2993F7
:100E000021913D91231F299321913D91231F2993E6
:100E100021913D91231F299321913D91231F2993D6
:100E2000111DA09790972191319141915191829FED
:100E30000D92612D70E0839F600D711D929F600D7A
:100E4000711D6D9360E0849F700D611D939F700D07
:100E5000611D7D9370E0859F600D711D949F600DF5
:100E6000711D6D9360E0720F661F2191829F700D5E
:100E7000611D959F700D611D7D9370E0630F771F5D
:100E8000929F600D711D6D9360E0740F661F7D93DE
:100E900070E0650F771F6D9360E0720F661F7D93A2
:100EA0006D9311241A972D913881230F29932D9139
:100EB0003881231F29932D913881231F29932D9148
:100EC0003881231F29932D913881231F29932D9138
:100ED0003881231F29932D913881231F29932D9128
:100EE0003881231F29932D913881231F29932D9118
:100EF0003881231F29932881211D29932881211DB1
:100F000029932881211D29932881211D2993288136
:100F1000211D29932881211D29932881211D299391
:100F20002881211D29932881211D29932881211D94
:100F300029932881211D29932881211D2993288106
:100F4000211D29932881211D29932881211D299361
:100F50002881211D29932881211D29932881211D64
:100F600029932881211D29932881211D29932881D6
:100F7000211D29932881211D2993111DA0973197A7
:100F80000FB6F894FEBF0FBEEDBF112381F020E233
:100F90004AE053E0BE01CE010E940702113039F051
:100FA00020E24AE053E0BE01CE010E94070240E287
:100FB0006AE073E0CE010E946403181654F420E244
:100FC0004AE053E0BE01CE01DF91CF911F910C9416
:100FD0000702DF91CF911F9108950F931F93CF9335
:100FE000DF93CDB7DEB7A0970FB6F894DEBF0FBE84
:100FF000CDBF142F242FAB01BC01CE0101960E945E
:101000000702082F612FCE0101960E94140391E080
:10101000811190E081E0011101C080E0880F981BF0
:10102000892FA0960FB6F894DEBF0FBECDBFDF911B
:10103000CF911F910F910895EF92FF920F93CF934D
:10104000DF93EC017901202F0E943601811107C046
:10105000402FBE01C7010E946403813059F0202F48
:10106000A701BE01CE01DF91CF910F91FF90EF90CC
:101070000C940702DF91CF910F91FF90EF900895AC
:10108000EF92FF920F93CF93DF93EC017901202F22
:101090000E940702882359F0202FA701BE01CE012C
:1010A000DF91CF910F91FF90EF900C943601DF917B
:1010B000CF910F91FF90EF9008952F923F924F9212
:1010C0005F926F927F928F929F92AF92BF92CF92D8
:1010D000DF92EF92FF920F931F93CF93DF93CDB7E1
:1010E000DEB7C65CD1090FB6F894DEBF0FBECDBF28
:1010F0004C01122F532E7E0121E8E20EF11C202F0D
:10110000C7010E94D802CE010196CF53DF4F9983C9
:101110008883C15CD040CD53DF4FF982E882C35C45
:10112000D040C02E002E000CDD08602F812F952DA1
:101130000E943A037601A4E0EE0CFF1CAA95E1F7A9
:10114000E81AF90A5701F7FE03C037E0A30EB11CF5
:10115000E3E0B594A794EA95E1F7F8E06F2E712CDF
:10116000C701B3010E94F526B82E6A2DCE018F5B10
:101170009F4F0E9453008A2DAA0C990B1B1424F533
:10118000412FE1E4F0E0EC0FFD1FE80FF91FA12F64
:10119000B52D50E06B187108B7FC73948A2F841B2F
:1011A0008017E8F48D9190E09C010B2C01C0220F78
:1011B0000A94EAF7252B2193062C02C09595879572
:1011C0000A94E2F7582FEACF402F612F752DE1E402
:1011D000F0E0EC0FFD1F8E0F9F1F0E947A0036017A
:1011E000660C771C11E044244394512C5601F1E025
:1011F000AF1AB10821E430E02C0F3D1FA20EB31E40
:10120000C20ED31E1601F7FC65C090E080E0212FCE
:1012100030E0F901EE0FFF1F41EC50E04C0F5D1F75
:101220004E0F5F1FCB53DF4F59834883C55CD040BF
:10123000B201621B730B660F771FE1ECF0E0EC0F5D
:10124000FD1F6E0F7F1F292F092E000C330B261553
:10125000370524F5CB53DF4FE881F981C55CD040D9
:10126000A081B181A20FB31F4C91A1E4B0E0AC0FFB
:10127000BD1FA20FB31F5C91A42FA51BA81B4A176B
:1012800021F081E04A1708F080E0FB0140815181A4
:10129000240F351FF901A0839F5FD5CF91E018136C
:1012A00090E0192F602FCE018F5B9F4F0E94C700E7
:1012B000F6018081F0E88F9FC0011124F501908133
:1012C000892B8083602FC1010E94C700F1E0EF1AD3
:1012D000F10899CFFE01EF53FF4FE10FF11DE10F30
:1012E000F11D60817181402FC4010E947A00CA53B0
:1012F000DF4F0FB6F894DEBF0FBECDBFDF91CF91A9
:101300001F910F91FF90EF90DF90CF90BF90AF9023
:101310009F908F907F906F905F904F903F902F9015
:101320000895EF92FF920F931F93CF93DF93CDB762
:10133000DEB7C054D1090FB6F894DEBF0FBECDBFE3
:101340007C018901F9012081CE0101960E94D80219
:10135000F801E655FF4F0190F081E02DBE016F5F6F
:101360007F4FC7010995C05CDF4F0FB6F894DEBF11
:101370000FBECDBFDF91CF911F910F91FF90EF90E6
:1013800008959A01AB010C9491096F927F928F920C
:101390009F92AF92BF92CF92DF92EF92FF920F9304
:1013A0001F93CF93DF93CDB7DEB7C054D1090FB6EB
:1013B000F894DEBF0FBECDBF6C013B017A0149013D
:1013C000F9011081612FCA010E9414038111ABC081
:1013D000A401B301CE0181960E94C1099401AE011E
:1013E0004F5D5F4FB601CE0101960E949109A401A5
:1013F000BE016F5D7F4FCB010E94C1099401A7011F
:10140000B301C3010E949109A401B701C7010E9461
:10141000C1095401F4E0AF0EB11C012F9501A701E1
:10142000B601C6010E941C089501A701B701C701BA
:101430000E941C089501A701B601C7010E9440083F
:101440009401A701B601C6010E9491099501A60168
:10145000B601C7010E941C089501A701B601C6018B
:101460000E941C08F601808180FF1AC0212FA5016F
:10147000B601C6010E943601082F612FC6010E94E5
:10148000C700E12F012E000CFF0B3197EC0DFD1D65
:1014900020E8029FC00111240081082B008304C0B2
:1014A000612FC6010E94C700A401B601C7010E94B6
:1014B000C109012F9501AE014F5F5F4FB701C70111
:1014C0000E9440089501AE014F5F5F4FB701C70111
:1014D0000E9440089501A701BE016F5F7F4FCB01BD
:1014E0000E9440089401AE014F5F5F4FB601C601F4
:1014F0000E9491099501AE014F5D5F4FB601CA018F
:101500000E944008412FB701C6010E947A00412F76
:10151000B301C7010E947A00412FBE016F5D7F4F6A
:10152000C3010E947A00C05CDF4F0FB6F894DEBFA3
:101530000FBECDBFDF91CF911F910F91FF90EF9024
:10154000DF90CF90BF90AF909F908F907F906F90E3
:1015500008956F927F928F929F92AF92BF92CF9297
:10156000DF92EF92FF920F931F93CF93DF93CDB74C
:10157000DEB7A0970FB6F894DEBF0FBECDBF7C01DB
:101580004B016A01CE0101963C0180E2F301119208
:101590008A95E9F783E08983FA011081C7010E94E7
:1015A000C1095601F4E0AF0EB11C012F9501A30152
:1015B000B701C7010E9440089601A401B701C70105
:1015C0000E949109A6014C575F4F9501B701C701D1
:1015D0000E941C08A0960FB6F894DEBF0FBECDBFC8
:1015E000DF91CF911F910F91FF90EF90DF90CF90FF
:1015F000BF90AF909F908F907F906F9008956F9263
:101600007F929F92AF92BF92CF92DF92EF92FF9222
:101610000F931F93CF93DF93CDB7DEB7C054D1099B
:101620000FB6F894DEBF0FBECDBF3C015B0190E268
:101630007E0181E2E80EF11CF701892F11928A9553
:10164000E9F781E089A38E010F5F1F4FF801119226
:101650009A95E9F78983FB0190806C5F7F4F292D74
:10166000A701C7010E943601692DC7010E943A03F4
:1016700001976C0182E0C816D104ACF0A501B80155
:10168000C8010E94C109B601C7010E942603882330
:1016900031F09501A301B801C8010E949109F1E060
:1016A000CF1AD108E7CF492DB801C3010E947A00B3
:1016B000C05CDF4F0FB6F894DEBF0FBECDBFDF9129
:1016C000CF911F910F91FF90EF90DF90CF90BF903F
:1016D000AF909F907F906F900895DF92EF92FF926E
:1016E0000F931F93CF93DF93CDB7DEB768970FB6F5
:1016F000F894DEBF0FBECDBF7C018B0148E10E9494
:101700007A00B801685E7F4F48E1CE0101960E94E1
:101710007A0028E1AE014F5F5F4FB701C7010E9419
:101720003601D82E18861F821E821D821C821B82C3
:101730001A821982F801808D8987818D8A87828D2E
:101740008B87838D8C87848D8D87858D8E87868D05
:101750008F87878D888B80A1898B81A18A8B82A1BD
:101760008B8B83A18C8B84A18D8B85A18E8B86A185
:101770008F8B87A1888F28E1AE014F5F5F4FB70144
:10178000C7010E943601D80EF80180A58987898398
:1017900081A58A878A8382A58B878B8383A58C8783
:1017A0008C8384A58D878D8385A58E878E8386A562
:1017B0008F878F8387A5888B8887188E1F8A1E8ABC
:1017C0001D8A1C8A1B8A1A8A198A28E1AE014F5F7A
:1017D0005F4FB701C7010E9436011D2D180F11235D
:1017E00049F028E14EE552E0B701C7010E94070227
:1017F000181BF5CF48E1B7018EE592E00E94640323
:10180000813079F768960FB6F894DEBF0FBECDBF72
:10181000DF91CF911F910F91FF90EF90DF9008958E
:101820006F927F928F929F92AF92BF92CF92DF92F0
:10183000EF92FF920F931F93CF93DF93CDB7DEB755
:101840006C970FB6F894DEBF0FBECDBF3C015B01B5
:101850006A0149014EEA51E0B901CE0101960E94A8
:10186000C1092EEA31E0A801B401C5010E94910925
:101870000CE122EB31E0A701BE016F5F7F4FC30196
:101880000E941C0822EB31E0A501B501C5010E94B0
:101890001C082EEA31E0A701BE016F5F7F4FC60131
:1018A0000E94910922EB31E0A601B601C6010E9417
:1018B0001C0822EB31E0A601B601C6010E941C08FB
:1018C0006C960FB6F894DEBF0FBECDBFDF91CF91FF
:1018D0001F910F91FF90EF90DF90CF90BF90AF904E
:1018E0009F908F907F906F900895DF92EF92FF927C
:1018F0000F931F93CF93DF93CDB7DEB76C970FB6DF
:10190000F894DEBF0FBECDBF7C018B014CE10E947D
:101910007A001C821B821A82198218861F821E82FC
:101920001D821C861B861A861986F801848D8D8778
:10193000858D8E87868D8F87878D888B80A1898BFB
:1019400081A18A8B82A18B8B83A18C8B84A18D8BAF
:1019500085A18E8B86A18F8B87A1888F80A5898F8B
:1019600081A58A8F82A58B8F83A58C8F2CE1AE01F8
:101970004F5F5F4FB701C7010E943601D82EF801B3
:1019800084A58D8785A58E8786A58F8787A5888B5B
:1019900080A9898B81A98A8B82A98B8B83A98C8B47
:1019A00084A98D8B85A98E8B86A98F8B87A9888F1B
:1019B0001C8E1B8E1A8E198E2CE1AE014F5F5F4F6D
:1019C000B701C7010E943601D80EF801848D8983C2
:1019D000858D8A83868D8B83878D8C8380A18D8373
:1019E00081A18E8382A18F8383A1888784A1898727
:1019F00085A18A8786A18B8787A18C8780A58D8703
:101A000081A58E8782A58F8783A5888B84A5898BE6
:101A100085A58A8B86A58B8B87A58C8B80A98D8BC2
:101A200081A98E8B82A98F8B83A9888F84A9898FA6
:101A300085A98A8F86A98B8F87A98C8F2CE1AE010F
:101A40004F5F5F4FB701C7010E940702D81AF80124
:101A500084A5898385A58A8386A58B8387A58C83A6
:101A600080A98D8381A98E8382A98F8383A988878A
:101A700084A9898785A98A8786A98B8787A98C8766
:101A8000188A1F861E861D861C8A1B8A1A8A198A36
:101A9000188E1F8A1E8A1D8A1C8E1B8E1A8E198E06
:101AA0002CE1AE014F5F5F4FB701C7010E940702F3
:101AB0001D2D181B17FF1BC02CE142EB51E0B70195
:101AC000C7010E943601180F17FDF6CF13C04CE175
:101AD000B70182EB91E00E946403813059F02CE160
:101AE00042EB51E0B701C7010E940702181B112306
:101AF00071F3F5CF6C960FB6F894DEBF0FBECDBF75
:101B0000DF91CF911F910F91FF90EF90DF9008959B
:101B1000CF92DF92FF920F931F93CF93DF93CDB7B6
:101B2000DEB7A0970FB6F894DEBF0FBECDBF6C0135
:101B30008B0140E20E947A001C821B821A82198269
:101B400018861F821E821D821C861B861A86198695
:101B5000F80184A58D8785A58E8786A58F8787A5A3
:101B6000888B80A9898B81A98A8B82A98B8B83A979
:101B70008C8B84A98D8B85A98E8B86A98F8B87A949
:101B8000888F80AD898F81AD8A8F82AD8B8F83AD39
:101B90008C8F84AD8D8F85AD8E8F86AD8F8F87AD09
:101BA00088A320E2AE014F5F5F4FBA01CA010E94D5
:101BB0003601F82E20E2AE014F5F5F4FB601C6013D
:101BC0000E943601F80EF80180A98D8781A98E87C1
:101BD00082A98F8783A9888B84A9898B85A98A8B01
:101BE00086A98B8B87A98C8B80AD8D8B81AD8E8BDD
:101BF00082AD8F8B83AD888F84AD898F85AD8A8FC1
:101C000086AD8B8F87AD8C8F18A21F8E1E8E1D8E7A
:101C100020E2AE014F5F5F4FBA01CA010E94360158
:101C2000F80E20E2AE014F5F5F4FB601C6010E9481
:101C30003601F80EF80180A1898381A18A8382A1EF
:101C40008B8383A18C8384A18D8385A18E8386A1C0
:101C50008F8387A1888780A5898781A58A8782A5A8
:101C60008B8783A58C87188A1F861E861D861C8AF3
:101C70001B8A1A8A198A188E1F8A1E8A1D8A80ADAD
:101C8000898F81AD8A8F82AD8B8F83AD8C8F84AD30
:101C90008D8F85AD8E8F86AD8F8F87AD88A320E227
:101CA000AE014F5F5F4FB601C6010E943601F80ECC
:101CB000F80184A1898385A18A8386A18B8387A16A
:101CC0008C8380A58D8381A58E8382A58F8383A538
:101CD000888784A5898785A58A8786A58B8787A518
:101CE0008C8734A93D8725A92E8796A99F8787A928
:101CF000888B40AD498B41AD4A8B42AD4B8B43AD98
:101D00004C8B44AD4D8B45AD4E8B46AD4F8B47ADA7
:101D1000488F398F2A8F9B8F8C8F80A18D8F81A1C7
:101D20008E8F82A18F8F83A188A320E2AE014F5FA7
:101D30005F4FB601C6010E943601F80EF80184A576
:101D4000898385A58A8386A58B8387A58C8380A9B3
:101D50008D8381A98E8382A98F8383A9888784A993
:101D6000898785A98A8786A98B8787A98C87188AFE
:101D70001F861E861D861C8A1B8A1A8A198A188E3F
:101D80001F8A1E8A1D8A80A1898F81A18A8F82A1C4
:101D90008B8F83A18C8F80A58D8F81A58E8F82A53F
:101DA0008F8F83A588A320E2AE014F5F5F4FB601FE
:101DB000C6010E940702F81AF80180A9898381A947
:101DC0008A8382A98B8383A98C8384A98D8385A927
:101DD0008E8386A98F8387A9888780AD898781AD07
:101DE0008A8782AD8B8783AD8C8784AD8D8785ADE7
:101DF0008E8786AD8F8787AD888B1C8A1B8A1A8A4F
:101E0000198A188E1F8A1E8A1D8A84A1898F85A12E
:101E10008A8F86A18B8F87A18C8F84A58D8F85A5B6
:101E20008E8F86A58F8F87A588A320E2AE014F5F96
:101E30005F4FB601C6010E940702F81AF80184A993
:101E4000898385A98A8386A98B8387A98C8380ADA2
:101E50008D8381AD8E8382AD8F8383AD888784AD82
:101E6000898785AD8A8786AD8B8787AD8C8780A172
:101E70008D8781A18E8782A18F8783A1888B84A182
:101E8000898B85A18A8B86A18B8B87A18C8B80A562
:101E90008D8B81A58E8B82A58F8B83A5888F1C8EC1
:101EA0001B8E1A8E198E80A98D8F81A98E8F82A983
:101EB0008F8F83A988A320E2AE014F5F5F4FB601E9
:101EC000C6010E940702F81AF80180AD898381AD2E
:101ED0008A8382AD8B8383AD8C8384AD8D8385AD06
:101EE0008E8386AD8F8387AD88871C861B861A8676
:101EF000198684A18D8785A18E8786A18F8787A16A
:101F0000888B80A5898B81A58A8B82A58B8B83A5E5
:101F10008C8B84A58D8B85A58E8B86A58F8B87A5B5
:101F2000888F1C8E1B8E1A8E198E84A98D8F85A981
:101F30008E8F86A98F8F87A988A320E2AE014F5F7D
:101F40005F4FB601C6010E940702F81AF7FE1BC0D8
:101F500020E246E051E0B601C6010E943601F80ECB
:101F6000F7FCF6CF13C040E2B60186E091E00E9494
:101F70006403813059F020E246E051E0B601C60129
:101F80000E940702F81AFF2071F3F5CFA0960FB652
:101F9000F894DEBF0FBECDBFDF91CF911F910F919F
:101FA000FF90DF90CF900895EF92FF920F931F93D1
:101FB000CF93DF937C018B01EA010E94C1099E014E
:101FC000A801B701C7010E9491099E012C5F3F4FF4
:101FD000AE014C575F4F00E2B701C7010E941C08D9
:101FE000DF91CF911F910F91FF90EF900895AF92E5
:101FF000BF92CF92DF92EF92FF920F931F93CF93F6
:10200000DF93CDB7DEB7A0970FB6F894DEBF0FBE53
:10201000CDBF5C017B016A018901A901B601CE0136
:1020200001960E94C1099801AE014F5F5F4FB50153
:10203000C5010E9491099801A601BE016F5F7F4F03
:10204000CB010E9491099801AE014F5F5F4FB7012C
:10205000C7010E949109A0960FB6F894DEBF0FBE8B
:10206000CDBFDF91CF911F910F91FF90EF90DF9047
:10207000CF90BF90AF9008954F925F926F927F92F2
:102080008F929F92AF92BF92CF92DF92EF92FF9288
:102090000F931F93CF93DF93CDB7DEB7A0970FB603
:1020A000F894DEBF0FBECDBF3C012B017A01590170
:1020B0006801F80110814601F4E08F0E911C012F98
:1020C0009401AC01B701CE0101960E944008A6011F
:1020D000BE016F5F7F4FCB010E94C1099601AE0127
:1020E0004F5F5F4FB301C3010E9491099601AE019A
:1020F0004F5F5F4FB701C7010E9491099401A20190
:10210000B501C5010E944008A601B501CE010196A6
:102110000E94C1099401A301BE016F5F7F4FCB01F3
:102120000E9440089401A701BE016F5F7F4FCB0161
:102130000E9440089401A301B701C7010E94400812
:102140009601A701B201C2010E9491099401AE015A
:102150004F5F5F4FB301C7010E9440089601A7017E
:10216000B501C5010E9491099401A201B501C50103
:102170000E944008412FBE016F5F7F4FC7010E9440
:102180007A00A0960FB6F894DEBF0FBECDBFDF91E8
:10219000CF911F910F91FF90EF90DF90CF90BF9064
:1021A000AF909F908F907F906F905F904F90089529
:1021B0004F925F926F927F928F929F92AF92BF9257
:1021C000CF92DF92EF92FF920F931F93CF93DF9303
:1021D000CDB7DEB7C056D1090FB6F894DEBF0FBE3B
:1021E000CDBF4C012B015A0139016801F801108162
:1021F0007601F4E0EF0EF11C012F9701AC01B5015F
:10220000CE018F5B9F4F0E944008A601BE016F5B0D
:102210007F4FCB010E94C1099601AE014F5B5F4F1A
:10222000B401C4010E9491099601AE014F5B5F4F5A
:10223000B501C5010E9491099701A201B301CE0128
:102240008F5B9F4F0E941C089701A201B301C3013D
:102250000E9440089701A401B501CE0181960E9419
:1022600040089601AE014F5D5F4FB201C2010E946E
:1022700091099701A501B401CE0181960E941C0825
:10228000A601B301C5010E94C1099701AE014F5DCE
:102290005F4FB501C5010E9440089701A501B40137
:1022A000CE0101960E9440089601AE014F5F5F4F3C
:1022B000B301C3010E9491099701A201B301C301B7
:1022C0000E944008A601BE016F5B7F4FCE010196C0
:1022D0000E94C1099701AE014F5D5F4FBE016F5F64
:1022E0007F4FCB010E9440089701A401BE016F5FA0
:1022F0007F4FCE0181960E9440089601AE014F5B50
:102300005F4FBE016F5D7F4FCB010E949109970126
:10231000A201BE016F5D7F4FC2010E944008412FA4
:10232000BE016F5F7F4FC4010E947A00C05ADF4F29
:102330000FB6F894DEBF0FBECDBFDF91CF911F91D6
:102340000F91FF90EF90DF90CF90BF90AF909F9054
:102350008F907F906F905F904F900895AF92BF9253
:10236000CF92DF92EF92FF920F931F93CF93DF9361
:102370006B015A01F90102811381E8012796D7FD0B
:10238000279643E0D595C7954A95E1F77901F4E2A0
:10239000EF0EF11C2C2FA701BC01C6010E943601D3
:1023A00081110FC038E0C302C001112408171907BA
:1023B00054F4B801C6010E94260311E0811104C043
:1023C00002C011E001C010E02C2FA701B601C50129
:1023D0000E943601812FDF91CF911F910F91FF90C5
:1023E000EF90DF90CF90BF90AF9008959F92AF9203
:1023F000BF92CF92DF92EF92FF920F931F93CF93F2
:10240000DF938C016B01D42F642FC6010E943A0325
:102410002091620430916304232B19F480E090E052
:102420003CC0ED2E0D2E000CFF08970143E0220F5B
:10243000331F4A95E1F7281B390B8FEF90E002C05C
:10244000959587952A95E2F7C82F50E4952E570168
:1024500081E0A81AB108A00EB11EE0916204F091CB
:102460006304B701C8010995892BC1F2F501808188
:102470008C2380836D2FC8010E941403882321F0D0
:102480009A949110EACFCACF4D2FB801C6010E948D
:10249000ED078130A9F781E090E0DF91CF911F91A6
:1024A0000F91FF90EF90DF90CF90BF90AF909F90F3
:1024B0000895CF93DF93DC0190E0EB012197292F62
:1024C000092E000C330B2617370764F4FE01E21BBC
:1024D000F30BE40FF51F8081FD01E20FF31F8083F2
:1024E0009F5FEDCFDF91CF9108958F929F92AF9232
:1024F000BF92CF92DF92EF92FF920F931F93CF93F1
:10250000DF937C014B016901F901828193818C0188
:10251000095F1F4F17FF02C0095F1F4F93E015951A
:1025200007959A95E1F7C02FD12F5E014C175D07F3
:1025300008F45A01602FC7010E945300A401B5019D
:10254000C7010E94591283E0AA0CBB1C8A95E1F7CF
:10255000F601828193818A159B05D8F5A81AB90ADC
:10256000CE0DDF1D60E028E030E02A193B09EC16B3
:10257000FD0698F49A91892F90E0AC010A2C02C0D4
:10258000559547950A94E2F7462B4883022E01C0E1
:10259000880F0A94EAF7682FEACFF4E2CF0ED11C35
:1025A000402FB701C6010E946403813091F0202FB3
:1025B000A601B701C701DF91CF911F910F91FF9045
:1025C000EF90DF90CF90BF90AF909F908F900C9442
:1025D0000702DF91CF911F910F91FF90EF90DF9055
:1025E000CF90BF90AF909F908F9008950F931F93BF
:1025F000CF93DF93EC0108851985000F111F8A85A1
:102600009B85080F191F9801DB0146E3FD01E61BBE
:10261000F70B88859985E817F90730F48D918427A1
:10262000F90181939F01F2CFE00FF11F46E32E8164
:102630003F81CF01801B910B8217930710F44193C8
:10264000F6CFE881F981CE0109954E815F81EA815B
:10265000FB81B801CE01DF91CF911F910F910994B9
:10266000DC011296ED91FC9113970994EF92FF9281
:102670000F931F93CF93DF93EC017A01088519859F
:10268000000F111F8A859B85080F191F9801DB0118
:102690004CE5FD01E61BF70B88859985E817F907DE
:1026A00030F48D918427F90181939F01F2CFE00FDF
:1026B000F11F4CE52E813F81CF01801B910B8217CA
:1026C000930710F44193F6CFEC81FD81B701CE0161
:1026D0000995E881F981CE0109954E815F81EA81F2
:1026E000FB81B801CE01099548855985EA81FB81B6
:1026F000B701CE010995EC81FD81B701CE01DF91D3
:10270000CF911F910F91FF90EF900994EF92FF925C
:102710000F931F93CF93DF93EC018B017A010E94FB
:10272000F61248855985B701CE010E943013A701E2
:10273000B801CE01DF91CF911F910F91FF90EF90E3
:102740000C9436130F931F93CF93DF938C01C42FF8
:10275000FC01808180FF08C0242FAB01B801C801B3
:102760000E943601D82F01C0D0E06C2FC8010E9412
:10277000C700DD2349F0EC2FCC0FFF0B3197E00FA2
:10278000F11F808180688083DF91CF911F910F912D
:102790000895AF92BF92CF92DF92EF92FF921F9374
:1027A000CF93DF93CDB7DEB7C058D1090FB6F894F9
:1027B000DEBF0FBECDBF6C015B017A01122F622F0D
:1027C000C5010E941403882329F0612FC6010E94CD
:1027D0005300A9C0412FB501CE018F599F4F0E94D0
:1027E0007A00412FB701CE018F5B9F4F0E947A0084
:1027F000612FCE0181960E94530081E089A3612F51
:10280000CE0101960E945300412FBE016F5B7F4FA6
:10281000CE018F599F4F0E946403882309F47CC026
:10282000A2969FADA29790FD07C0612FCE018F5950
:102830009F4F0E94C7003AC022969FAD229790FDFD
:1028400007C0612FCE018F5B9F4F0E94C7005DC004
:10285000212FAE0118167CF54F5B5F4FBE016F59FB
:102860007F4FCB010E940702612FCE018F599F4FEE
:102870000E94C700412FBE016F5F7F4FCE0181963E
:102880000E94640387FF08C0212FA701BE016F5D6E
:102890007F4FCB010E943601212FAE014F5F5F4F6A
:1028A000BE016F5D7F4FCB010E940702412FB70130
:1028B000CE0181962EC04F595F4FBE016F5B7F4F97
:1028C000CB010E940702612FCE018F5B9F4F0E94B8
:1028D000C700412FBE016F5D7F4FCE0101960E9460
:1028E000640387FF08C0212FA701BE016F5F7F4FE0
:1028F000CB010E943601212FAE014F5D5F4FBE011B
:102900006F5F7F4FCB010E940702412FB701CE01BD
:1029100001960E94A21378CF412FBE016F5D7F4FB9
:10292000C6010E947A00C058DF4F0FB6F894DEBF90
:102930000FBECDBFDF91CF911F91FF90EF90DF9041
:10294000CF90BF90AF9008952F923F924F925F9299
:102950006F927F928F929F92AF92BF92CF92DF92AF
:10296000EF92FF920F931F93CF93DF93CDB7DEB714
:10297000C05ED1090FB6F894DEBF0FBECDBF5C01BB
:102980006E0185E5C80ED11C8CE1F60111928A9585
:10299000E9F781E0F60180834CE1B501CE018F5863
:1029A0009F4F0E947A004E01F9E38F0E911C0CE1BB
:1029B00022EB31E0A501B901C4010E94400827E0E3
:1029C000322E22242394582C492C622C022C000CE9
:1029D00077084CE1BE016F587F4FCE018B539F4F5C
:1029E0000E947A004CE1B601CE0187559F4F0E94AC
:1029F0007A004CE1652D742DCE0183579F4F0E94C4
:102A00007A0088248394912C681479049CF0CE0178
:102A100083579F4F7C018E0107551F4F9E012B53FB
:102A20003F4FAC01B801C9010E94100C9FEF891AF9
:102A3000990AEACF2EEA31E0A601BE0167557F4F21
:102A4000CE014D960E9491092EEA31E0A501BE010A
:102A5000635E7F4FCB010E9491090CE122EB31E0D4
:102A6000AE01435E5F4FB901CA010E9440082EEAE1
:102A700031E0AE014F585F4FBE016B537F4FCE0127
:102A800001960E94910922EB31E0AE01435E5F4F57
:102A9000BE016F5F7F4FCB010E941C082EEA31E020
:102AA000A601BE016B537F4FCE014D960E94910946
:102AB0002EEA31E0AE0147555F4FBE016F587F4FA0
:102AC000CA010E94910922EB31E0AE01435E5F4FE3
:102AD000BE0167557F4FCB010E941C084EEA51E0B2
:102AE000BE0167557F4FCE0183579F4F0E94C1099A
:102AF0002EEA31E0A501BE0163577F4FCB010E9452
:102B0000910922EB31E0AE0143575F4FB901CA0191
:102B10000E9440084CE1BE016F5F7F4FCE018B5396
:102B20009F4F0E947A004CE1BE016B537F4FCE0154
:102B30008F589F4F0E947A004CE1BE0167557F4F2E
:102B4000C6010E947A004CE1BE0163577F4F852D7C
:102B5000942D0E947A00220C3A94311036CFFE0157
:102B6000E357FF4F7F018E0107551F4F9E012B53E7
:102B70003F4FAE01435E5F4F652D742DCE01019630
:102B80000E94100C8FE5C82ED12C4CE1BE016F5F66
:102B90007F4FCE018B539F4F0E947A004CE1652DF1
:102BA000742DCE0187559F4F0E947A004CE1BE01E3
:102BB000635E7F4FCE0183579F4F0E947A00CE0104
:102BC00083579F4F7C018E0107551F4F9E012B534A
:102BD0003F4FAE01435E5F4F652D742D8C589109B8
:102BE0000E94100C6CE1CE0101960E941403811129
:102BF00004C091E0C91AD10841F62CE142EB51E042
:102C0000BE0167557F4FCE014D960E94C9132EEA33
:102C100031E0AE01435E5F4FBE016B537F4FC50194
:102C20000E949109C052DF4F0FB6F894DEBF0FBE6D
:102C3000CDBFDF91CF911F910F91FF90EF90DF906B
:102C4000CF90BF90AF909F908F907F906F905F904C
:102C50004F903F902F9008953F924F925F926F92C6
:102C60007F928F929F92AF92BF92CF92DF92EF921C
:102C7000FF920F931F93CF93DF93CDB7DEB7CC5A5C
:102C8000D1090FB6F894DEBF0FBECDBFC755DF4FD9
:102C900099838883C95AD040CD55DF4F79836883A3
:102CA000C35AD040C555DF4F59834883CB5AD040D3
:102CB00069012701F7013080432D81E490E08C0FFA
:102CC0009D1F80960E947A00232D032C000C330B4D
:102CD000CB55DF4F39832883C55AD040CD55DF4FC0
:102CE00088819981C35AD040820F931FC955DF4F05
:102CF00099838883C75AD040432DBC01CE01819669
:102D00000E947A00F701F080C114D10441F04F2DE8
:102D1000B601CE018F579F4F0E947A000CC06F2DD5
:102D2000CE018F579F4F0E94530081E0CF57DF4F56
:102D30008883C158D040B1E4CB2ED12CCC0EDD1EFF
:102D4000F0E2CF0ED11C4F2DB601CE018F5B9F4F0D
:102D50000E947A004F2DBE016F5D7F4F9E012F5F55
:102D60003F4F7901C9010E947A009201AE014F578D
:102D70005F4FBE016F5D7F4FC6010E94F70FF201EA
:102D8000EC55FF4F0190F081E02D9201AE014F57BD
:102D90005F4FBE016F5D7F4FC60109959201AE0185
:102DA0004F575F4FB701CE018F5B9F4F0E94F70FC8
:102DB000580132E0A31AB1081A141B040CF046C0E3
:102DC000B501C555DF4F88819981CB5AD0400E940B
:102DD000260321E030E0882311F020E030E03901C3
:102DE00065E0660C771C6A95E1F788248394912C42
:102DF0008C0E9D1E860C971C81E490E08C0F9D1F0D
:102E0000680E791EEE24E394F12CE21AF30AF5E041
:102E1000EE0CFF1CFA95E1F7CC24C394D12CCC0E18
:102E2000DD1ECE0CDF1CE80EF91E82019401A30109
:102E3000B601C7010E94D8109601A701B401C301D1
:102E40000E943C1091E0A91AB108B6CFC555DF4FDA
:102E5000E881F981CB5AD040808180958170CF552F
:102E6000DF4F8883C15AD040CE55DF4F1882C25AF7
:102E7000D040CF55DF4FC880D980C15AD04085E0BF
:102E8000CC0CDD1C8A95E1F788248394912C8C0E60
:102E90009D1E8C0C9D1C21E430E02C0F3D1FC20EAA
:102EA000D31E81E090E07C01CF55DF4FE881F981AE
:102EB000C15AD040EE1AFF0A45E0EE0CFF1C4A95BD
:102EC000E1F7AA24A394B12CAC0EBD1EAE0CBF1C1E
:102ED000E20EF31E82019401A601B501C7010E9412
:102EE000D8103201F4E06F0E711C61E470E06C0FD9
:102EF0007D1F605E7F4F032D9301AE014F5B5F4FDF
:102F0000CE018F579F4F0E9440089201A501BE013C
:102F10006F577F4FCB010E9491099201CD55DF4F32
:102F200048815981C35AD040BE016F577F4FCB01B2
:102F30000E949109232DA301BE016F577F4FCB0142
:102F40000E94C9139201C955DF4F48815981C75A60
:102F5000D040BE016F577F4FCB010E949109920173
:102F6000A701BE016F577F4FCB010E9491098201DB
:102F70009501A701B401C6010E943C109201AE0167
:102F80004F575F4FBE016F5F7F4FCE018F5B9F4FEB
:102F90000E94F70F432DBE016F5B7F4FC755DF4F78
:102FA00088819981C95AD0400E947A00432DBE0180
:102FB0006F5F7F4FC755DF4F88819981C95AD040D5
:102FC000CB55DF4F28813981C55AD040820F931FDE
:102FD0000E947A00C455DF4F0FB6F894DEBF0FBED3
:102FE000CDBFDF91CF911F910F91FF90EF90DF90B8
:102FF000CF90BF90AF909F908F907F906F905F9099
:103000004F903F9008958F929F92AF92BF92CF9230
:10301000DF92EF92FF920F931F93CF93DF93CDB781
:10302000DEB7C454D1090FB6F894DEBF0FBECDBFD2
:103030004C01CB016A01BE016F5D7F4F23967FAFCC
:103040006EAF2397AE014F5F5F4F25965FAF4EAFD8
:10305000259796010E94AE11F82E809162049091FE
:103060006304892BA1F0FE01EF5BFF4FEF0DF11D13
:10307000EF0DF11DA080B180F6014081B6016C5FBB
:103080007F4FC5010E94F611892B19F427C0A12C8E
:10309000B12CF601028113810F5F1F4F81E090E098
:1030A000FF2011F080E090E0880F991FE1E4F0E04C
:1030B000EC0FFD1FE80FF91F40815181B6016C5BD9
:1030C0007F4F76019501C4010E942C16F6016081A4
:1030D000660FC4010E94140391E0811190E0892FD2
:1030E000CC5BDF4F0FB6F894DEBF0FBECDBFDF91D4
:1030F000CF911F910F91FF90EF90DF90CF90BF90F5
:10310000AF909F908F9008952F923F924F925F9231
:103110006F927F928F929F92AF92BF92CF92DF92E7
:10312000EF92FF920F931F93CF93DF93CDB7DEB74C
:10313000CD58D1090FB6F894DEBF0FBECDBFC8572A
:10314000DF4F99838883C858D040C657DF4F7983B3
:103150006883CA58D040C457DF4F59834883CC583E
:10316000D0406901CA57DF4F19830883C658D04041
:1031700017014E0181E6880E911CCF57DF4F9982CF
:103180008882C158D0403E01E1E46E0E711CCD57DB
:10319000DF4F79826882C358D040F701F081CB5766
:1031A000DF4FF883C558D0406F2FC9010E94140328
:1031B000882319F080E090E01FC1F701028113819C
:1031C000C801079697FD07962C01E3E055944794B4
:1031D000EA95E1F75101F4E2AF0EB11C442DB601BE
:1031E000C5010E94ED07813029F79101A301B401C7
:1031F000C6010E94AE11F82E809162049091630482
:10320000892BB9F0FE01EF57FF4FEF0DF11DEF0DC8
:10321000F11D60807180CB57DF4F4881C558D04089
:10322000B1016C5F7F4FC3010E94F611892B19F425
:10323000C1CF612C712C0F5F1F4F81E090E0FF2008
:1032400011F080E090E0880F991FE1E8F0E0EC0FCA
:10325000FD1FE80FF91F4081518171019301B101F8
:103260006C5B7F4FCE0101960E942C16CB57DF4F2F
:103270006881C558D040CE0101960E941403811187
:1032800099CF8091620490916304892B59F4642D45
:10329000CE018F599F4F0E94530081E0A2968FAFBD
:1032A000A2970AC0442DB501CE018F599F4F0E94AD
:1032B000F611892B09F47ECF042D9501A401B601E6
:1032C000C6010E945D08242DA501B601C6010E9419
:1032D000C9139501A401B601C6010E945D08F10160
:1032E0006181062E000C770BAE014F5F5F4FCA570E
:1032F000DF4F88819981C658D0400E945912F10150
:1033000082819381BC01695F7F4F77FF02C0695F53
:103310007F4F83E0759567958A95E1F7C857DF4F32
:1033200048815981C858D040C4010E945912E1E433
:10333000F0E0EC0FFD1FE40DF11D47FCFA9531970D
:103340001082CB57DF4F4881C558D040BE016F5F18
:103350007F4FCE018F5B9F4F0E947A00042D950115
:10336000AE014F5B5F4FB401CA010E945D0891013D
:10337000C457DF4F48815981CC58D040C657DF4FE2
:1033800068817981CA58D040C4010E9475129501A4
:10339000AE014F5B5F4FB401CA010E941C0895014A
:1033A000A601BE016F5B7F4FCB010E945D08642DBB
:1033B000CE018F5B9F4F0E943A03F1012181022EC3
:1033C000000C330BA90163E0440F551F6A95E1F728
:1033D000481759070CF4EECEAE014F5B5F4FB901B1
:1033E000CA57DF4F88819981C658D040820F931FFA
:1033F0000E94591281E090E0C357DF4F0FB6F89456
:10340000DEBF0FBECDBFDF91CF911F910F91FF9017
:10341000EF90DF90CF90BF90AF909F908F907F9074
:103420006F905F904F903F902F9008958F929F9252
:10343000AF92BF92CF92DF92EF92FF920F931F93C2
:10344000CF93DF93CDB7DEB7C054D1090FB6F89450
:10345000DEBF0FBECDBF6C017B014A01590160E2A6
:10346000CA010E94140381117CC0A501B701CE01DD
:1034700001960E94C1099501AE014F5F5F4FB601F1
:10348000CE0181960E949109A501B601C6010E9454
:10349000C109A501BE016F5F7F4FCB010E94C10929
:1034A0009501A401B701C4010E949109450124E0DE
:1034B000820E911C00E29401A601B601C7010E9490
:1034C0001C089401A601B701C7010E941C08F7015E
:1034D000808180FF14C020E2A401B701C7010E94CF
:1034E0003601182F60E2C7010E94C700F0E81F9F55
:1034F000C0011124F701978D892B878F04C060E2EA
:10350000C7010E94C700A501B701C6010E94C109F9
:1035100000E29401AE014F5D5F4FB601C6010E940B
:1035200040089401AE014F5D5F4FB601C6010E9495
:1035300040089401A601BE016F5D7F4FCB010E9440
:1035400040089501AE014F5D5F4FB701C7010E9472
:1035500091099401AE014F5F5F4FB701C7010E940F
:103560004008C05CDF4F0FB6F894DEBF0FBECDBF82
:10357000DF91CF911F910F91FF90EF90DF90CF904F
:10358000BF90AF909F908F90089590936304809325
:103590006204089580916204909163040895FC018F
:1035A00022813381C901079697FD079623E09595FF
:1035B00087952A95E1F70895FC018181880F990B81
:1035C000089582EB93E008958AE592E008958EEAEB
:1035D00091E0089582E091E0089586E093E00895F7
:1035E0009F92AF92BF92CF92DF92EF92FF920F9392
:1035F0001F93CF93DF93CDB7DEB7C056D1090FB677
:10360000F894DEBF0FBECDBF7C016B018A0120E4C0
:10361000922E5A0184E2A80EB11CF8018281938196
:10362000AC01495F5F4F57FF02C0495F5F4F93E0B6
:10363000559547959A95E1F7B501CE018F5B9F4F60
:103640000E94F611892B19F480E090E044C0A80193
:10365000BE016F5B7F4FCE0101960E940318882345
:10366000B1F1F80182819381BC01695F7F4F77FFDF
:1036700002C0695F7F4F83E0759567958A95E1F792
:10368000AE014F5B5F4FC6010E945912F801618184
:10369000062E000C770BAE014F5F5F4FC7010E94F3
:1036A0005912F8018181908141E050E04C0F5D1F7B
:1036B000490F511D97FD5A95082E000C990BBC011E
:1036C0008E0D9F1D0E94591281E090E004C09A94D3
:1036D0009110A3CFB9CFC05ADF4F0FB6F894DEBF19
:1036E0000FBECDBFDF91CF911F910F91FF90EF9053
:1036F000DF90CF90BF90AF909F9008955F926F92B0
:103700007F928F929F92AF92BF92CF92DF92EF9271
:10371000FF920F931F93CF93DF93CDB7DEB7C458BB
:10372000D1090FB6F894DEBF0FBECDBF7C013A01C0
:1037300069018E010F591F4FCF57DF4F198308833F
:10374000C158D0404E0181E4880E911CCD57DF4F07
:1037500099828882C358D040F9015080A18022818B
:103760003381C901079697FD079653E09595879594
:103770005A95E1F7AB01BC01C8010E9459120A2C0D
:10378000000CBB08A701B501CE0101960E94591299
:10379000A7014A0D5B1DB50181E090E08C0F9D1FD4
:1037A000850D911D57FC9A950E9459129601A4010E
:1037B000B801C8010E94AE11182F80916204909147
:1037C0006304892B99F0FE01EF57FF4FE10FF11DC4
:1037D000E10FF11D80809180452DB6016C5F7F4F18
:1037E000C4010E94F611009719F434C0812C912C69
:1037F000F601228133812F5F3F4F81E090E011235A
:1038000011F080E090E0880F991FE1E8F0E0EC0F04
:10381000FD1FE80FF91F4081518176018901940154
:10382000BE016F5F7F4FCB010E942C16AE014F5F30
:103830005F4FB501C3010E945912F6016081660F06
:10384000CE0101960E94140331E020E0811130E0A6
:10385000832F922FCC57DF4F0FB6F894DEBF0FBEE9
:10386000CDBFDF91CF911F910F91FF90EF90DF902F
:10387000CF90BF90AF909F908F907F906F905F9010
:103880000895CF93DF93DC0190E0EA01E9819E1770
:1038900074F4292F092E000C330BFD01E20FF31FE6
:1038A0008081FB01E20FF31F81839F5FEECFEE0F5C
:1038B000FF0BEA0FFB1F3197808181708E5FFB0148
:1038C0008083DF91CF910895AF92BF92CF92DF9224
:1038D000EF92FF920F931F93CF93DF93CDB7DEB795
:1038E000C054D1090FB6F894DEBF0FBECDBF5C0146
:1038F0006B018A01FA018081EE24E394F12CEC0E35
:10390000FD1EE80EF11C87FDFA94A5014F5F5F4F85
:103910006181062E000C770BCE0101960E94591290
:10392000F801E855FF4F0190F081E02DA801BE019C
:103930006F5F7F4FC7010995F801EA55FF4F01906E
:10394000F081E02DB801C7010995F7019081F501DB
:103950008081892780FF09C0F8012081A701B80173
:103960006C5F7F4FC7010E940702F8016181062E3C
:10397000000C770BAE014F5F5F4FC6010E945912DA
:10398000F8018181082E000C990BA701BC018C0D58
:103990009D1D0E945912C05CDF4F0FB6F894DEBF28
:1039A0000FBECDBFDF91CF911F910F91FF90EF9090
:1039B000DF90CF90BF90AF900895AF92BF92CF921B
:1039C000DF92EF92FF920F931F93CF93DF93CDB7C8
:1039D000DEB7C058D1090FB6F894DEBF0FBECDBF19
:1039E0008C017B01FB016181062E000C770BAC0181
:1039F000CE0101960E945912F7016181062E000C3A
:103A0000770BA801460F571F808121E030E02C0F73
:103A10003D1F280F311D87FD3A95C9010E9459129B
:103A2000F7011081612F660FCE0101960E941403E9
:103A3000811153C05701F4E0AF0EB11C412FBE01FC
:103A40006F5F7F4FC5010E946403813009F045C05C
:103A5000CC24C394D12CCC0EDD1EC10ED11C17FD7D
:103A6000DA94412FB601C5010E9464038130A9F5A3
:103A7000A701B601CE018F599F4F0E94C109F701DE
:103A8000E855FF4F0190F081E02DA701BE016F5F67
:103A90007F4FCE018F5B9F4F0995115020E017FD9E
:103AA00016C0812F012E000C990BE1E6F0E0EC0F1F
:103AB000FD1FE80FF91FA1E4B0E0AC0FBD1FA80F78
:103AC000B91F30818C918327282B1150E8CF81E0DA
:103AD00090E0222321F080E002C080E090E0C05816
:103AE000DF4F0FB6F894DEBF0FBECDBFDF91CF9191
:103AF0001F910F91FF90EF90DF90CF90BF90AF900C
:103B00000895CF92DF92EF92FF920F931F93CF937E
:103B1000DF93CDB7DEB7C056D1090FB6F894DEBF3C
:103B20000FBECDBF6B018A01FA0122813381B90139
:103B3000695F7F4F77FF02C0695F7F4F23E0759514
:103B400067952A95E1F7AC01CE018F5B9F4F0E94EC
:103B50005912F80182819381AC01495F5F4F57FF91
:103B600002C0495F5F4F7A0183E0F594E7948A953C
:103B7000E1F76E2DCE018F5B9F4F0E9414038823C7
:103B800019F080E090E034C04E2DBE016F5B7F4F96
:103B9000C80184960E94ED07813099F7A801BE0103
:103BA0006F5B7F4FCE0101960E940318882349F373
:103BB000F8016181062E000C770BAE014F5F5F4F5D
:103BC000C6010E945912F8018181908141E050E0C4
:103BD0004C0F5D1F490F511D97FD5A95082E000C83
:103BE000990BBC018C0D9D1D0E94591281E090E043
:103BF000C05ADF4F0FB6F894DEBF0FBECDBFDF91C6
:103C0000CF911F910F91FF90EF90DF90CF9008958B
:103C10008F929F92AF92BF92CF92DF92EF92FF92DC
:103C20000F931F93CF93DF93CDB7DEB7A0970FB657
:103C3000F894DEBF0FBECDBF6C015B014A01B90134
:103C4000F70182819381AC01495F5F4F57FF02C04A
:103C5000495F5F4F83E0559547958A95E1F7970156
:103C6000CE0101960E9475129E012F5F3F4FA40165
:103C7000B501C6010E948418A0960FB6F894DEBF65
:103C80000FBECDBFDF91CF911F910F91FF90EF90AD
:103C9000DF90CF90BF90AF909F908F9008952F921C
:103CA0003F924F925F926F927F928F929F92AF92CC
:103CB000BF92CF92DF92EF92FF920F931F93CF9319
:103CC000DF93CDB7DEB7A1970FB6F894DEBF0FBE76
:103CD000CDBF5C014B013A012901680180E489A351
:103CE0001801E4E22E0E311CF60182819381AC01B1
:103CF000495F5F4F57FF02C0495F5F4F83E05595B3
:103D000047958A95E1F7B101CE0101960E94F6111F
:103D1000892B19F480E090E014C0760182019E01A5
:103D20002F5F3F4FA301B401C5010E948418892B66
:103D300031F4F9A1F150F9A3F111D6CFEBCF81E025
:103D400090E0A1960FB6F894DEBF0FBECDBFDF9115
:103D5000CF911F910F91FF90EF90DF90CF90BF9088
:103D6000AF909F908F907F906F905F904F903F901B
:103D70002F9008952F923F924F925F926F927F9271
:103D80008F929F92AF92BF92CF92DF92EF92FF926B
:103D90000F931F93CF93DF93CDB7DEB7AD970FB6D9
:103DA000F894DEBF0FBECDBF9CA38BA32B015EA3F7
:103DB0004DA369011DA70CA7F8A6EFA2D9011A9679
:103DC0008D909C901B971896AD90BC901997A80C5D
:103DD000B91CF7010181628073801301F7E02F0E97
:103DE000311C37FE04C013012EE0220E311C43E0CB
:103DF000359427944A95E1F72BA6B401F50141E0EB
:103E0000D60118962D913C911997CF018A199B09DB
:103E10008217930728F44193DB011D92BD01F0CF77
:103E2000B401C6010E94F612D6011896ED91FC91DC
:103E30001997EA0DFB1D108218964D915C91199708
:103E40004F5F5F4FB501C6010E943013002E000C7A
:103E5000110BA8016BA17CA1C6010E9430134DA1DA
:103E60005EA1B201C6010E943013A401B401C601D3
:103E70000E943613A501B401C6010E948613B40145
:103E8000C6010E94F612D6011896ED91FC91199781
:103E9000EA0DFB1D81E0808318964D915C91199786
:103EA0004F5F5F4FB501C6010E943013A8016BA19F
:103EB0007CA1C6010E9430134DA15EA1B201C601D2
:103EC0000E943013A401B401C6010E943613A5015B
:103ED000B401C6010E948613822D220C990BFC01AD
:103EE00023E0EE0FFF1F2A95E1F7FAA3E9A39F0154
:103EF000261937094FEF50E01A0102C03594279474
:103F00002A95E2F730E4332E9E01280F391F3AA795
:103F100029A710E0A501B401C6010E948613D601AD
:103F200018968D919C9119978A0D9B1DF501E817A4
:103F3000F90781F321E0210F3191A1E0B0E0AC0F4E
:103F4000BD1FA10FB11D17FDBA953C93BBA52B1743
:103F500014F4122FECCFE9A1FAA16E167F062CF40F
:103F6000A9A5BAA58C9182218C93EFA0F8A40CA5E9
:103F70001DA59E012F5F3F4F4DA15EA1B2018BA1F8
:103F80009CA10E9484188C01892B19F001E010E09B
:103F900023C0B401C6010E94F612D6011896ED9115
:103FA000FC911997EA0DFB1D108218964D915C91BA
:103FB00019974F5F5F4FB501C6010E943013A401EE
:103FC000B401C6010E943613A501B401C6010E94C6
:103FD00086133A9431109DCFC801AD960FB6F89470
:103FE000DEBF0FBECDBFDF91CF911F910F91FF902C
:103FF000EF90DF90CF90BF90AF909F908F907F9089
:104000006F905F904F903F902F9008952F923F9226
:104010004F925F926F927F928F929F92AF92BF92D8
:10402000CF92DF92EF92FF920F931F93CF93DF9384
:10403000CDB7DEB7C25DD1400FB6F894DEBF0FBE7C
:10404000CDBF5C01CF52DE4F79836883C15DD14023
:10405000C153DE4F59834883CF5CD1404901780179
:10406000D8015C9012968D919C9113976C01B7E0EA
:10407000CB0ED11CD7FE04C06C01EEE0CE0ED11CDD
:1040800023E0D594C7942A95E1F70C2D0C2C000C55
:10409000110B01501109E1E4F1E0EC0FFD1FE00FFD
:1040A000F11F1082E1EAF0E0EC0FFD1FE00FF11FBD
:1040B0001082E1E8F0E0EC0FFD1FE00FF11F10822D
:1040C000D70111966C91062E000C770BA501FE010D
:1040D00031963F01CF010E945912D70111966C9180
:1040E000252C052C000C3308F301E20DF31DC353FE
:1040F000DE4FF983E883CD5CD140062E000C770BB0
:10410000A501460F571FCF010E945912D7011196E2
:104110006C91062E000C770BA401CE018F559F4F9A
:104120000E945912F7016181062E000C770BA40141
:10413000460F571FCE018F579F4F0E945912652D72
:10414000CE018F559F4F0E941403811137C2652DF8
:10415000CE018F579F4F0E94140381112FC2470138
:10416000F4E28F0E911C4C2DBE016F557F4FC401A0
:104170000E946403813009F021C24C2DBE016F57AB
:104180007F4FC4010E946403813009F017C22C2DB7
:10419000A401BE016F577F4FCE018F599E4F0E94E1
:1041A000C913E1EAF1E0EC0FFD1FE00FF11F1082EF
:1041B0009701C153DE4F48815981CF5CD140CF5226
:1041C000DE4F68817981C15DD140CE018F559E4F10
:1041D0000E9475120C2D9401AE014F595E4FBE0125
:1041E0006F557E4FCB010E945D089401AE014F597F
:1041F0005E4FBE016F557F4FCE018F579E4F0E947D
:104200005D085E0121E4A20EB11C452DB301C5017C
:104210000E947A00C501820D931DC153DE4F998320
:104220008883CF5CD140452DC353DE4F68817981AF
:10423000CD5CD1400E947A00452DD701AC5BBF4FC9
:10424000C353DE4FB983A883CD5CD140BD01CE01FD
:104250008F5F9E4F0E947A00C353DE4F6881798141
:10426000CD5CD140620D731D452DCE018F519F4F06
:104270000E947A00F7013496CF52DE4FF983E8832B
:10428000C15DD140052D9F01AE014F5F5E4FB5016D
:10429000CE018F599E4F0E9440088701C153DE4FC7
:1042A00028813981CF5CD140A501BE016F517F4F7C
:1042B000CE018F5F9E4F0E943C10252DCF52DE4FC6
:1042C00048815981C15DD140BE016F597E4FCB01FC
:1042D0000E94C9139701AE014F595E4FC153DE4F83
:1042E00068817981CF5CD140C5010E94F70FCF531F
:1042F000DE4F19821882C15CD140C353DE4F8881E2
:104300009981CD5CD140CD53DE4F99838883C35CC6
:10431000D140CB53DE4F79826882C55CD140C9530E
:10432000DE4FB982A882C75CD1406C2DCE018F5779
:104330009E4F0E943A035C016C2DCE018F559E4F1B
:104340000E943A038501A816B9060CF48C015801A5
:1043500091E0A91AB108B501CE018F559E4F0E9478
:10436000260366246394712C811102C0612C712C88
:10437000B501CE018F579E4F0E942603811103C0C5
:10438000E0E0F0E002C0E2E0F0E0E629F729EE0F1D
:10439000FF1FA1ECB1E0AC0FBD1FEA0FFB1FA08017
:1043A000B180FE01EF5BFE4FC753DE4FF983E88318
:1043B000C95CD140452DB501CF010E947A00B501FD
:1043C000620D731DCE018F5D9E4FC553DE4F9983E5
:1043D0008883CB5CD140452D0E947A00652DCE01AB
:1043E0008F599E4F0E94530081E0CF59DE4F888342
:1043F000C156D140380192E0691A7108DE01AF5B05
:10440000BE4F5D01C553DE4F4880CB5CD140C453E5
:10441000DE4FB881CC5CD140C353DE4FB883CD5C56
:10442000D140F701EC55FF4FC153DE4FF983E883CC
:10443000CF5CD14077FC7EC0C153DE4FA881B981EB
:10444000CF5CD140ED91FC919701AE014F595E4F89
:10445000642DC353DE4F7881CD5CD140C5010995F1
:10446000B301CE018F559E4F0E94260311E08111AA
:1044700001C010E0B301CE018F579E4F0E9426036A
:10448000811182E0182BFE01EF53FE4FE10FF11D69
:10449000E10FF11D008111810115110509F446C0DC
:1044A000452DB801CE018F5F9E4F0E947A00B80162
:1044B000620D731D452DCE018F519F4F0E947A00D2
:1044C0009701AE014F595E4FBE016F517F4FCE0134
:1044D0008F5F9E4F0E94F70F052DCF52DE4F288130
:1044E0003981C15DD140AE014F5F5E4FB501CE0154
:1044F0008F539F4F0E9440088701242DC353DE4FE6
:104500003881CD5CD140A501BE016F517F4FCE01F6
:104510008F5F9E4F0E943C109701AE014F535F4F3B
:10452000BE016F597E4FCB010E949109B1E06B1A19
:10453000710880CF252DCF52DE4F48815981C15D52
:10454000D140BE016F597E4FCB010E94C913970124
:10455000AE014F595E4F642DC353DE4F7881CD5C61
:10456000D140C5010E94F70F4C2DB501C4010E9436
:104570006403813031F02C2DA401B501C5010E94E6
:1045800007025A9420E057FC13C0852D052C000C1F
:10459000990BF501E80FF91FA1EAB0E0AC0FBD1FC0
:1045A000A80FB91F30818C918327282B5A94EBCF09
:1045B00081E090E0222321F080E002C080E090E0E2
:1045C000CE52DE4F0FB6F894DEBF0FBECDBFDF91E7
:1045D000CF911F910F91FF90EF90DF90CF90BF9000
:1045E000AF909F908F907F906F905F904F903F9093
:1045F0002F900895AF92BF92CF92DF92EF92FF92E9
:104600000F931F93CF93DF93CDB7DEB764970FB6A9
:10461000F894DEBF0FBECDBF5C01CE0101966C01E8
:1046200084E1F60111928A95E9F780E090E00E941A
:104630003A278823C9F0F9E38F9F7001112401E024
:1046400010E044E150E0B801C6010E942A2744E18D
:1046500050E0B501C6010E941D27892B39F0075C87
:104660001F4FE016F1066CF700E010E0C8016496F9
:104670000FB6F894DEBF0FBECDBFDF91CF911F9173
:104680000F91FF90EF90DF90CF90BF90AF90089583
:1046900081E090E00895CF92DF92FF920F931F93F5
:1046A000CF93DF93CDB7DEB7ED970FB6F894DEBFAB
:1046B0000FBECDBF8C010E94FA22009749F0BC01C9
:1046C0006C5E7F4F40E150E0C8010E942A2746C03F
:1046D00080E090E00E943A27F82E80E18F1508F4E0
:1046E00040C089E3F89E60011124B6016F5F7F4FDF
:1046F00044E150E0C8010E9442270E94E11AAC0147
:10470000BE01675D7F4FCE0101960E94F01A892B92
:1047100059F160E170E0C8010E943025B6016B5E7E
:104720007F4F40E150E0C8010E944227B6016B5D17
:104730007F4F45E150E0CE0189960E94422761E01B
:104740006F0D80E090E00E94522788E2FE013196D2
:10475000D801509601900D928A95E1F780E090E0A3
:1047600005C085E090E002C081E090E0ED960FB6D4
:10477000F894DEBF0FBECDBFDF91CF911F910F9197
:10478000FF90DF90CF900895CF92DF92EF92FF924B
:104790000F931F93CF93DF93CDB7DEB7C155D109E8
:1047A0000FB6F894DEBF0FBECDBF6C010E94FA2297
:1047B0007C010097B9F145E150E0BC016C5D7F4F91
:1047C000CE0189960E942A2784E1F6017496DE01C3
:1047D000DE9601900D928A95E1F70E94E11A8C0114
:1047E0009E012F5F3F4F44E150E0BE01625C7F4F6E
:1047F000CE0189960E944F1E892BB9F0B7016C5EDD
:104800007F4F40E150E0C6010E942A2788E2FE0166
:104810003196D601509601900D928A95E1F780E08D
:1048200090E005C084E090E002C082E090E0CF5AC2
:10483000DF4F0FB6F894DEBF0FBECDBFDF91CF9133
:104840001F910F91FF90EF90DF90CF9008951F92EE
:104850000F920FB60F9211248F939F939BB180E418
:1048600089278BB980910101882329F0809101016A
:104870008150809301019F918F910F900FBE0F90F7
:104880001F901895E4E6F0E08081877F8083109286
:10489000800081E19AE79093890080938800E1E8A5
:1048A000F0E0108280818C608083EFE6F0E0808110
:1048B00082608083089583B181709091000189178F
:1048C000A9F0909165049F5F9093650490916504B1
:1048D000943070F080930001109265048091000183
:1048E000811106C081E080936404089510926504EC
:1048F00008951F920F920FB60F9211242F933F939A
:104900004F935F936F937F938F939F93AF93BF93D7
:10491000EF93FF930E945B24FF91EF91BF91AF91C2
:104920009F918F917F916F915F914F913F912F91C7
:104930000F900FBE0F901F901895809164048823EC
:1049400029F01092640481E090E0089580E090E006
:1049500008952098289A84B7877F84BFE0E6F0E026
:104960008081877F808380818861808310828081BD
:10497000806480830895F894EAE7F0E080818F777F
:104980008083E4E6F0E08FEF808380818D7F8083F9
:10499000569A5E980895CF93DF9300D000D0CDB79C
:1049A000DEB780916F008D7F80936F0080916000F3
:1049B0008F7B809360001092890010928800809114
:1049C0005E0490915F04A0916004B09161048983BA
:1049D0009A83AB83BC83FE0131969E012B5F3F4FD0
:1049E00080E061E070E0AB01019002C0440F551F10
:1049F0000A94E2F7842B2E173F07A9F790918100C4
:104A000080958923809381008091640089608093E0
:104A100064000F900F900F900F90DF91CF91089549
:104A200083B7817F83BF83B7816083BF889583B756
:104A30008E7F83BF0E949D24892B21F480910101E8
:104A40008111F1CF5E980E94CB2480E090E0089520
:104A5000F8940E9442240E94A92478940C94102572
:104A6000F894209164002F7D2093640015BC25B537
:104A7000216025BD7894680F791F8617970729F064
:104A800026B5FC012193CF01F8CF809164008062AC
:104A90008093640081E090E00895EF92FF920F937D
:104AA0001F93CF93DF938C017B01EC01CE01801B20
:104AB000910B8E159F0524F489910E94EC25F6CF69
:104AC000DF91CF911F910F91FF90EF900895EF929A
:104AD000FF920F931F93CF93DF938C017B01EC0127
:104AE000CE01801B910B8E159F0524F40E94D925C1
:104AF0008993F6CFDF91CF911F910F91FF90EF90A7
:104B00000895FC01718360834483128213820895A7
:104B1000FC012FB7F89492818381981303C02FBFB3
:104B200081E0089581E0890F3481831708F080E0E7
:104B3000A081B181A90FB11D9C91DB019C9382835F
:104B40002FBF80E00895FC012FB7F89483818F5F19
:104B50009481891708F080E03FB7F8949281891317
:104B600007C091E0980F4481941708F090E0928379
:104B70003FBF9381A081B181A90FB11D6C93838345
:104B80002FBF08951092C50080E18093C400E0EC2F
:104B9000F0E080818260808388E98093C10086E0B4
:104BA0008093C20049E266E674E08FE894E00C94DA
:104BB0008125CF93DF931F92CDB7DEB7BE016F5F24
:104BC0007F4F8FE894E00E9488258130B9F3898176
:104BD0000F90DF91CF9108959091C00095FFFCCF89
:104BE0008093C60008951F920F920FB60F92112462
:104BF0002F933F934F935F936F937F938F939F93E5
:104C0000AF93BF93EF93FF936091C6008FE894E05A
:104C10000E94A325FF91EF91BF91AF919F918F913A
:104C20007F916F915F914F913F912F910F900FBEA8
:104C30000F901F901895EFE8F4E012821382089508
:104C4000CF93DF93CDB7DEB7E8970FB6F894DEBF0A
:104C50000FBECDBF8E010F5F1F4F88E3F801119289
:104C60008A95E9F760E080E090E00E94522780E3B7
:104C700095E20E94C51A0E94C2250E94BB24789426
:104C80006E01F9E3CF0ED11C0E94D925813009F4C1
:104C900041C038F0823009F454C0833009F45EC05A
:104CA0009EC08091C00087FF02C083E095C080E075
:104CB00090E00E943A27E82E80E00E94EC258E2D9D
:104CC0000E94EC2525E1A22EB12C812C912CF12CF7
:104CD0008E149F04CCF640E150E0B501C8010E945B
:104CE0002A2760E170E0C8010E944D25B50164519A
:104CF000710944E150E0C8010E942A2764E170E094
:104D0000C8010E944D258FEF881A980AE9E3AE0E7C
:104D1000B11CDECF64E170E0C8010E94672580917C
:104D2000C00087FDC2CFC8010E944B23F82E0E940D
:104D3000EC25F110A9CF68E370E0C8010E944D2571
:104D4000A3CF68E270E0C8010E9467258091C0008F
:104D500087FDABCFC8010E94C423E8CF0E9448233F
:104D6000892B11F486E038C08091C00087FD9DCF6B
:104D700080E090E00E943A27F8011192EC15FD05C1
:104D8000E1F7EE24E394F12C812C912CA82EB12C88
:104D90008A149B04DCF444E150E0B801C7010E948E
:104DA000422740E150E0B801C70144960E944227E3
:104DB00045E150E0B801C70184960E944227FFEF09
:104DC0008F1A9F0A89E3E80EF11CE2CF60E080E0D1
:104DD00090E00E94522780E00E94EC2555CF81E0B0
:104DE0000E94EC250E941B264FCF97FB072E16F43E
:104DF000009407D077FD09D00E94092707FC05D051
:104E00003EF4909581959F4F0895709561957F4FE1
:104E10000895AA1BBB1B51E107C0AA1FBB1FA61701
:104E2000B70710F0A61BB70B881F991F5A95A9F753
:104E300080959095BC01CD010895FB01DC0104C073
:104E40008D910190801921F441505040C8F7881B82
:104E5000990B0895DC01CB01FC01F999FECF06C046
:104E6000F2BDE1BDF89A319600B40D924150504028
:104E7000B8F70895F999FECF92BD81BDF89A9927A8
:104E800080B50895DC01A40FB51F4150504048F093
:104E9000CB01840F951F2E910E9453274150504003
:104EA000D0F70895262FF999FECF92BD81BDF89ACB
:104EB000019700B4021639F01FBA20BD0FB6F8945E
:0C4EC000FA9AF99A0FBE0895F894FFCFFB
:104ECC00FF1420200001FFFFFFFFFFFFFFFFFFFF8C
:104EDC00FFFF0000000000000000000000000100C7
:104EEC000000FFFFFFFF512563FCC2CAB9F3849E8B
:104EFC0017A7ADFAE6BCFFFFFFFFFFFFFFFF0000A7
:104F0C000000FFFFFFFF96C298D84539A1F4A033EB
:104F1C00EB2D817D0377F240A463E5E6BCF84742B4
:104F2C002CE1F2D1176BF551BF376840B6CBCE5E92
:104F3C00316B5733CE2B169E0F7C4AEBE78E9B7F43
:104F4C001AFEE242E34F4B60D2273E3CCE3BF6B01A
:104F5C0053CCB0061D65BC86987655BDEBB3E79374
:104F6C003AAAD835C65AC509FF0AA90A880D1C1CCD
:104F7C00E000010000000000000000000000FFFF46
:104F8C00FFFFFFFFFFFFFFFFFFFFFFFFFFFF000023
:104F9C0000003D2A5C5C4529DD133EF0B8E0A2160A
:104FAC00FFFFFFFFFFFFFFFFFFFFFFFFFFFF000003
:104FBC000000211D5C11D68032342211C256D3C19F
:104FCC00034AB99013327FBFB46BBD0C0EB7347E5D
:104FDC0000859981D5446447075AA07543CDE6DF17
:104FEC00224CFB23F7B5886337BD0000000000009E
:104FFC000000B4FF552343390B27BAD8BFD7B7B03D
:10500C004450563241F5ABB3040C850A05B400008C
:10501C000000C509A414A90A750C1818C000FFFFDC
:10502C00FFFFFFFFFFFFFEFFFFFFFFFFFFFFFFFF85
:10503C00FFFFFFFFFFFF0000000000000000312811
:10504C00D2B4B1C96B1436F8DE99FFFFFFFFFFFF36
:10505C00FFFFFFFFFFFF0000000000000000121028
:10506C00FF82FD0AFFF40088A143EB20BF7CF69081
:10507C0030B00EA88D181148791EA177F973D5CDD3
:10508C00246BED11106378DAC8FF952B190700001B
:10509C000000000000000000000000000000B1B99A
:1050AC0046C1ECDEB8FE49302472ABE9A70FE780AD
:1050BC009CE5190521640000000000000000C509F2
:1050CC00FF0AA90A6D0B202000012FFCFFFFFEFF39
:1050DC00FFFFFFFFFFFFFFFFFFFFFFFFFFFFFFFFD4
:1050EC00FFFFFFFFFFFFFFFFFFFF414136D08C5E4C
:1050FC00D2BF3BA048AFE6DCAEBAFEFFFFFFFFFF1E
:10510C00FFFFFFFFFFFFFFFFFFFF9817F8165B8104
:10511C00F259D928CE2DDBFC9B02070B87CE95626A
:10512C00A055ACBBDCF97E66BE79B8D410FB8FD031
:10513C00479C195485A648B417FDA808110EFCFB12
:10514C00A45D65C4A32677DA3A4807000000000086
:10515C000000000000000000000000000000000043
:10516C0000000000000000000000161AFF0AD40F17
:10517C0013051414A100FFFFFF7FFFFFFFFFFFFFCC
:10518C00FFFFFFFFFFFFFFFFFFFF0000000000001D
:10519C00000000000000572275CAD3AE27F9C8F4EE
:1051AC0001000000000000000000010000000000F1
:1051BC0000000000000082FCCB13B98BC368896926
:1051CC0064462873F58E68B5964A32FBC57A37511A
:1051DC00230412C9DC597D9468315528A62300009C
:1051EC0000000000000000000000000000000000B3
:1051FC0000000000000045FA65C5ADD4D4819FF8CD
:10520C00AC658B7ABD54FCBE971C000000000000FE
:10521C00000000000000C509FF0AA90A7E03030272
:02522C0001007F
:00000001FF
